{
  "_format": "hh3-artifact-1",
  "contractName": "GovernanceToken",
  "sourceName": "contracts/GovernanceToken.sol",
  "abi": [
    {
      "inputs": [
        {
          "internalType": "address",
          "name": "initialOwner",
          "type": "address"
        }
      ],
      "stateMutability": "nonpayable",
      "type": "constructor"
    },
    {
      "inputs": [],
      "name": "CheckpointUnorderedInsertion",
      "type": "error"
    },
    {
      "inputs": [],
      "name": "ECDSAInvalidSignature",
      "type": "error"
    },
    {
      "inputs": [
        {
          "internalType": "uint256",
          "name": "length",
          "type": "uint256"
        }
      ],
      "name": "ECDSAInvalidSignatureLength",
      "type": "error"
    },
    {
      "inputs": [
        {
          "internalType": "bytes32",
          "name": "s",
          "type": "bytes32"
        }
      ],
      "name": "ECDSAInvalidSignatureS",
      "type": "error"
    },
    {
      "inputs": [
        {
          "internalType": "uint256",
          "name": "increasedSupply",
          "type": "uint256"
        },
        {
          "internalType": "uint256",
          "name": "cap",
          "type": "uint256"
        }
      ],
      "name": "ERC20ExceededSafeSupply",
      "type": "error"
    },
    {
      "inputs": [
        {
          "internalType": "address",
          "name": "spender",
          "type": "address"
        },
        {
          "internalType": "uint256",
          "name": "allowance",
          "type": "uint256"
        },
        {
          "internalType": "uint256",
          "name": "needed",
          "type": "uint256"
        }
      ],
      "name": "ERC20InsufficientAllowance",
      "type": "error"
    },
    {
      "inputs": [
        {
          "internalType": "address",
          "name": "sender",
          "type": "address"
        },
        {
          "internalType": "uint256",
          "name": "balance",
          "type": "uint256"
        },
        {
          "internalType": "uint256",
          "name": "needed",
          "type": "uint256"
        }
      ],
      "name": "ERC20InsufficientBalance",
      "type": "error"
    },
    {
      "inputs": [
        {
          "internalType": "address",
          "name": "approver",
          "type": "address"
        }
      ],
      "name": "ERC20InvalidApprover",
      "type": "error"
    },
    {
      "inputs": [
        {
          "internalType": "address",
          "name": "receiver",
          "type": "address"
        }
      ],
      "name": "ERC20InvalidReceiver",
      "type": "error"
    },
    {
      "inputs": [
        {
          "internalType": "address",
          "name": "sender",
          "type": "address"
        }
      ],
      "name": "ERC20InvalidSender",
      "type": "error"
    },
    {
      "inputs": [
        {
          "internalType": "address",
          "name": "spender",
          "type": "address"
        }
      ],
      "name": "ERC20InvalidSpender",
      "type": "error"
    },
    {
      "inputs": [
        {
          "internalType": "uint256",
          "name": "deadline",
          "type": "uint256"
        }
      ],
      "name": "ERC2612ExpiredSignature",
      "type": "error"
    },
    {
      "inputs": [
        {
          "internalType": "address",
          "name": "signer",
          "type": "address"
        },
        {
          "internalType": "address",
          "name": "owner",
          "type": "address"
        }
      ],
      "name": "ERC2612InvalidSigner",
      "type": "error"
    },
    {
      "inputs": [
        {
          "internalType": "uint256",
          "name": "timepoint",
          "type": "uint256"
        },
        {
          "internalType": "uint48",
          "name": "clock",
          "type": "uint48"
        }
      ],
      "name": "ERC5805FutureLookup",
      "type": "error"
    },
    {
      "inputs": [],
      "name": "ERC6372InconsistentClock",
      "type": "error"
    },
    {
      "inputs": [
        {
          "internalType": "address",
          "name": "account",
          "type": "address"
        },
        {
          "internalType": "uint256",
          "name": "currentNonce",
          "type": "uint256"
        }
      ],
      "name": "InvalidAccountNonce",
      "type": "error"
    },
    {
      "inputs": [],
      "name": "InvalidShortString",
      "type": "error"
    },
    {
      "inputs": [
        {
          "internalType": "address",
          "name": "owner",
          "type": "address"
        }
      ],
      "name": "OwnableInvalidOwner",
      "type": "error"
    },
    {
      "inputs": [
        {
          "internalType": "address",
          "name": "account",
          "type": "address"
        }
      ],
      "name": "OwnableUnauthorizedAccount",
      "type": "error"
    },
    {
      "inputs": [
        {
          "internalType": "uint8",
          "name": "bits",
          "type": "uint8"
        },
        {
          "internalType": "uint256",
          "name": "value",
          "type": "uint256"
        }
      ],
      "name": "SafeCastOverflowedUintDowncast",
      "type": "error"
    },
    {
      "inputs": [
        {
          "internalType": "string",
          "name": "str",
          "type": "string"
        }
      ],
      "name": "StringTooLong",
      "type": "error"
    },
    {
      "inputs": [
        {
          "internalType": "uint256",
          "name": "expiry",
          "type": "uint256"
        }
      ],
      "name": "VotesExpiredSignature",
      "type": "error"
    },
    {
      "anonymous": false,
      "inputs": [
        {
          "indexed": true,
          "internalType": "address",
          "name": "owner",
          "type": "address"
        },
        {
          "indexed": true,
          "internalType": "address",
          "name": "spender",
          "type": "address"
        },
        {
          "indexed": false,
          "internalType": "uint256",
          "name": "value",
          "type": "uint256"
        }
      ],
      "name": "Approval",
      "type": "event"
    },
    {
      "anonymous": false,
      "inputs": [
        {
          "indexed": true,
          "internalType": "address",
          "name": "delegator",
          "type": "address"
        },
        {
          "indexed": true,
          "internalType": "address",
          "name": "fromDelegate",
          "type": "address"
        },
        {
          "indexed": true,
          "internalType": "address",
          "name": "toDelegate",
          "type": "address"
        }
      ],
      "name": "DelegateChanged",
      "type": "event"
    },
    {
      "anonymous": false,
      "inputs": [
        {
          "indexed": true,
          "internalType": "address",
          "name": "delegate",
          "type": "address"
        },
        {
          "indexed": false,
          "internalType": "uint256",
          "name": "previousVotes",
          "type": "uint256"
        },
        {
          "indexed": false,
          "internalType": "uint256",
          "name": "newVotes",
          "type": "uint256"
        }
      ],
      "name": "DelegateVotesChanged",
      "type": "event"
    },
    {
      "anonymous": false,
      "inputs": [],
      "name": "EIP712DomainChanged",
      "type": "event"
    },
    {
      "anonymous": false,
      "inputs": [
        {
          "indexed": true,
          "internalType": "address",
          "name": "previousOwner",
          "type": "address"
        },
        {
          "indexed": true,
          "internalType": "address",
          "name": "newOwner",
          "type": "address"
        }
      ],
      "name": "OwnershipTransferred",
      "type": "event"
    },
    {
      "anonymous": false,
      "inputs": [
        {
          "indexed": true,
          "internalType": "address",
          "name": "from",
          "type": "address"
        },
        {
          "indexed": true,
          "internalType": "address",
          "name": "to",
          "type": "address"
        },
        {
          "indexed": false,
          "internalType": "uint256",
          "name": "value",
          "type": "uint256"
        }
      ],
      "name": "Transfer",
      "type": "event"
    },
    {
      "inputs": [],
      "name": "CLOCK_MODE",
      "outputs": [
        {
          "internalType": "string",
          "name": "",
          "type": "string"
        }
      ],
      "stateMutability": "view",
      "type": "function"
    },
    {
      "inputs": [],
      "name": "DOMAIN_SEPARATOR",
      "outputs": [
        {
          "internalType": "bytes32",
          "name": "",
          "type": "bytes32"
        }
      ],
      "stateMutability": "view",
      "type": "function"
    },
    {
      "inputs": [
        {
          "internalType": "address",
          "name": "owner",
          "type": "address"
        },
        {
          "internalType": "address",
          "name": "spender",
          "type": "address"
        }
      ],
      "name": "allowance",
      "outputs": [
        {
          "internalType": "uint256",
          "name": "",
          "type": "uint256"
        }
      ],
      "stateMutability": "view",
      "type": "function"
    },
    {
      "inputs": [
        {
          "internalType": "address",
          "name": "spender",
          "type": "address"
        },
        {
          "internalType": "uint256",
          "name": "value",
          "type": "uint256"
        }
      ],
      "name": "approve",
      "outputs": [
        {
          "internalType": "bool",
          "name": "",
          "type": "bool"
        }
      ],
      "stateMutability": "nonpayable",
      "type": "function"
    },
    {
      "inputs": [
        {
          "internalType": "address",
          "name": "account",
          "type": "address"
        }
      ],
      "name": "balanceOf",
      "outputs": [
        {
          "internalType": "uint256",
          "name": "",
          "type": "uint256"
        }
      ],
      "stateMutability": "view",
      "type": "function"
    },
    {
      "inputs": [
        {
          "internalType": "address",
          "name": "account",
          "type": "address"
        },
        {
          "internalType": "uint32",
          "name": "pos",
          "type": "uint32"
        }
      ],
      "name": "checkpoints",
      "outputs": [
        {
          "components": [
            {
              "internalType": "uint48",
              "name": "_key",
              "type": "uint48"
            },
            {
              "internalType": "uint208",
              "name": "_value",
              "type": "uint208"
            }
          ],
          "internalType": "struct Checkpoints.Checkpoint208",
          "name": "",
          "type": "tuple"
        }
      ],
      "stateMutability": "view",
      "type": "function"
    },
    {
      "inputs": [],
      "name": "clock",
      "outputs": [
        {
          "internalType": "uint48",
          "name": "",
          "type": "uint48"
        }
      ],
      "stateMutability": "view",
      "type": "function"
    },
    {
      "inputs": [],
      "name": "decimals",
      "outputs": [
        {
          "internalType": "uint8",
          "name": "",
          "type": "uint8"
        }
      ],
      "stateMutability": "view",
      "type": "function"
    },
    {
      "inputs": [
        {
          "internalType": "address",
          "name": "delegatee",
          "type": "address"
        }
      ],
      "name": "delegate",
      "outputs": [],
      "stateMutability": "nonpayable",
      "type": "function"
    },
    {
      "inputs": [
        {
          "internalType": "address",
          "name": "delegatee",
          "type": "address"
        },
        {
          "internalType": "uint256",
          "name": "nonce",
          "type": "uint256"
        },
        {
          "internalType": "uint256",
          "name": "expiry",
          "type": "uint256"
        },
        {
          "internalType": "uint8",
          "name": "v",
          "type": "uint8"
        },
        {
          "internalType": "bytes32",
          "name": "r",
          "type": "bytes32"
        },
        {
          "internalType": "bytes32",
          "name": "s",
          "type": "bytes32"
        }
      ],
      "name": "delegateBySig",
      "outputs": [],
      "stateMutability": "nonpayable",
      "type": "function"
    },
    {
      "inputs": [
        {
          "internalType": "address",
          "name": "account",
          "type": "address"
        }
      ],
      "name": "delegates",
      "outputs": [
        {
          "internalType": "address",
          "name": "",
          "type": "address"
        }
      ],
      "stateMutability": "view",
      "type": "function"
    },
    {
      "inputs": [],
      "name": "eip712Domain",
      "outputs": [
        {
          "internalType": "bytes1",
          "name": "fields",
          "type": "bytes1"
        },
        {
          "internalType": "string",
          "name": "name",
          "type": "string"
        },
        {
          "internalType": "string",
          "name": "version",
          "type": "string"
        },
        {
          "internalType": "uint256",
          "name": "chainId",
          "type": "uint256"
        },
        {
          "internalType": "address",
          "name": "verifyingContract",
          "type": "address"
        },
        {
          "internalType": "bytes32",
          "name": "salt",
          "type": "bytes32"
        },
        {
          "internalType": "uint256[]",
          "name": "extensions",
          "type": "uint256[]"
        }
      ],
      "stateMutability": "view",
      "type": "function"
    },
    {
      "inputs": [
        {
          "internalType": "uint256",
          "name": "timepoint",
          "type": "uint256"
        }
      ],
      "name": "getPastTotalSupply",
      "outputs": [
        {
          "internalType": "uint256",
          "name": "",
          "type": "uint256"
        }
      ],
      "stateMutability": "view",
      "type": "function"
    },
    {
      "inputs": [
        {
          "internalType": "address",
          "name": "account",
          "type": "address"
        },
        {
          "internalType": "uint256",
          "name": "timepoint",
          "type": "uint256"
        }
      ],
      "name": "getPastVotes",
      "outputs": [
        {
          "internalType": "uint256",
          "name": "",
          "type": "uint256"
        }
      ],
      "stateMutability": "view",
      "type": "function"
    },
    {
      "inputs": [
        {
          "internalType": "address",
          "name": "account",
          "type": "address"
        }
      ],
      "name": "getVotes",
      "outputs": [
        {
          "internalType": "uint256",
          "name": "",
          "type": "uint256"
        }
      ],
      "stateMutability": "view",
      "type": "function"
    },
    {
      "inputs": [
        {
          "internalType": "address",
          "name": "to",
          "type": "address"
        },
        {
          "internalType": "uint256",
          "name": "amount",
          "type": "uint256"
        }
      ],
      "name": "mint",
      "outputs": [],
      "stateMutability": "nonpayable",
      "type": "function"
    },
    {
      "inputs": [],
      "name": "name",
      "outputs": [
        {
          "internalType": "string",
          "name": "",
          "type": "string"
        }
      ],
      "stateMutability": "view",
      "type": "function"
    },
    {
      "inputs": [
        {
          "internalType": "address",
          "name": "owner",
          "type": "address"
        }
      ],
      "name": "nonces",
      "outputs": [
        {
          "internalType": "uint256",
          "name": "",
          "type": "uint256"
        }
      ],
      "stateMutability": "view",
      "type": "function"
    },
    {
      "inputs": [
        {
          "internalType": "address",
          "name": "account",
          "type": "address"
        }
      ],
      "name": "numCheckpoints",
      "outputs": [
        {
          "internalType": "uint32",
          "name": "",
          "type": "uint32"
        }
      ],
      "stateMutability": "view",
      "type": "function"
    },
    {
      "inputs": [],
      "name": "owner",
      "outputs": [
        {
          "internalType": "address",
          "name": "",
          "type": "address"
        }
      ],
      "stateMutability": "view",
      "type": "function"
    },
    {
      "inputs": [
        {
          "internalType": "address",
          "name": "owner",
          "type": "address"
        },
        {
          "internalType": "address",
          "name": "spender",
          "type": "address"
        },
        {
          "internalType": "uint256",
          "name": "value",
          "type": "uint256"
        },
        {
          "internalType": "uint256",
          "name": "deadline",
          "type": "uint256"
        },
        {
          "internalType": "uint8",
          "name": "v",
          "type": "uint8"
        },
        {
          "internalType": "bytes32",
          "name": "r",
          "type": "bytes32"
        },
        {
          "internalType": "bytes32",
          "name": "s",
          "type": "bytes32"
        }
      ],
      "name": "permit",
      "outputs": [],
      "stateMutability": "nonpayable",
      "type": "function"
    },
    {
      "inputs": [],
      "name": "renounceOwnership",
      "outputs": [],
      "stateMutability": "nonpayable",
      "type": "function"
    },
    {
      "inputs": [],
      "name": "symbol",
      "outputs": [
        {
          "internalType": "string",
          "name": "",
          "type": "string"
        }
      ],
      "stateMutability": "view",
      "type": "function"
    },
    {
      "inputs": [],
      "name": "totalSupply",
      "outputs": [
        {
          "internalType": "uint256",
          "name": "",
          "type": "uint256"
        }
      ],
      "stateMutability": "view",
      "type": "function"
    },
    {
      "inputs": [
        {
          "internalType": "address",
          "name": "to",
          "type": "address"
        },
        {
          "internalType": "uint256",
          "name": "value",
          "type": "uint256"
        }
      ],
      "name": "transfer",
      "outputs": [
        {
          "internalType": "bool",
          "name": "",
          "type": "bool"
        }
      ],
      "stateMutability": "nonpayable",
      "type": "function"
    },
    {
      "inputs": [
        {
          "internalType": "address",
          "name": "from",
          "type": "address"
        },
        {
          "internalType": "address",
          "name": "to",
          "type": "address"
        },
        {
          "internalType": "uint256",
          "name": "value",
          "type": "uint256"
        }
      ],
      "name": "transferFrom",
      "outputs": [
        {
          "internalType": "bool",
          "name": "",
          "type": "bool"
        }
      ],
      "stateMutability": "nonpayable",
      "type": "function"
    },
    {
      "inputs": [
        {
          "internalType": "address",
          "name": "newOwner",
          "type": "address"
        }
      ],
      "name": "transferOwnership",
      "outputs": [],
      "stateMutability": "nonpayable",
      "type": "function"
    }
  ],
  "bytecode": "0x61016060405234801562000011575f80fd5b5060405162002bd638038062002bd6833981016040819052620000349162000955565b806040518060400160405280600f81526020016e23b7bb32b93730b731b2aa37b5b2b760891b81525080604051806040016040528060018152602001603160f81b8152506040518060400160405280600f81526020016e23b7bb32b93730b731b2aa37b5b2b760891b8152506040518060400160405280600381526020016247544b60e81b8152508160039081620000cd919062000a1a565b506004620000dc828262000a1a565b50620000ee9150839050600562000200565b61012052620000ff81600662000200565b61014052815160208084019190912060e052815190820120610100524660a0526200018c60e05161010051604080517f8b73c3c69bb8fe3d512ecc4cf759cc79239f7b179b0ffacaa9a75d522b39400f60208201529081019290925260608201524660808201523060a08201525f9060c00160405160208183030381529060405280519060200120905090565b60805250503060c052506001600160a01b038116620001c557604051631e4fbdf760e01b81525f60048201526024015b60405180910390fd5b620001d08162000238565b50620001f933620001e46012600a62000bf3565b620001f390620f424062000c03565b62000289565b5062000d08565b5f6020835110156200021f576200021783620002c5565b905062000232565b816200022c848262000a1a565b5060ff90505b92915050565b600b80546001600160a01b038381166001600160a01b0319831681179093556040519116919082907f8be0079c531659141344cd1fd0a4f28419497f9722a3daafe3b4186f6b6457e0905f90a35050565b6001600160a01b038216620002b45760405163ec442f0560e01b81525f6004820152602401620001bc565b620002c15f838362000307565b5050565b5f80829050601f81511115620002f2578260405163305a27a960e01b8152600401620001bc919062000c1d565b8051620002ff8262000c6b565b179392505050565b6200031483838362000319565b505050565b6200032683838362000387565b6001600160a01b0383166200037a575f6200034060025490565b90506001600160d01b03808211156200037757604051630e58ae9360e11b81526004810183905260248101829052604401620001bc565b50505b62000314838383620004b6565b6001600160a01b038316620003b5578060025f828254620003a9919062000c8f565b90915550620004279050565b6001600160a01b0383165f9081526020819052604090205481811015620004095760405163391434e360e21b81526001600160a01b03851660048201526024810182905260448101839052606401620001bc565b6001600160a01b0384165f9081526020819052604090209082900390555b6001600160a01b038216620004455760028054829003905562000463565b6001600160a01b0382165f9081526020819052604090208054820190555b816001600160a01b0316836001600160a01b03167fddf252ad1be2c89b69c2b068fc378daa952ba7f163c4a11628f55a4df523b3ef83604051620004a991815260200190565b60405180910390a3505050565b6001600160a01b038316620004eb57620004e8600a620009266200054d60201b17620004e28462000561565b6200059a565b50505b6001600160a01b0382166200051a5762000517600a62000931620005d660201b17620004e28462000561565b50505b6001600160a01b038381165f908152600860205260408082205485841683529120546200031492918216911683620005e3565b5f6200055a828462000ca5565b9392505050565b5f6001600160d01b0382111562000596576040516306dfcc6560e41b815260d0600482015260248101839052604401620001bc565b5090565b5f80620005c9620005aa62000745565b620005c0620005b98862000755565b868860201c565b879190620007a1565b915091505b935093915050565b5f6200055a828462000ccf565b816001600160a01b0316836001600160a01b0316141580156200060557505f81115b1562000314576001600160a01b03831615620006a6576001600160a01b0383165f90815260096020908152604082208291620006529190620005d6901b6200093117620004e28662000561565b6001600160d01b031691506001600160d01b03169150846001600160a01b03165f8051602062002bb683398151915283836040516200069b929190918252602082015260400190565b60405180910390a250505b6001600160a01b0382161562000314576001600160a01b0382165f90815260096020908152604082208291620006ed91906200054d901b6200092617620004e28662000561565b6001600160d01b031691506001600160d01b03169150836001600160a01b03165f8051602062002bb6833981519152838360405162000736929190918252602082015260400190565b60405180910390a25050505050565b5f62000750620007b0565b905090565b80545f90801562000799576200077f836200077260018462000cf2565b5f91825260209091200190565b54660100000000000090046001600160d01b03166200055a565b5f9392505050565b5f80620005c9858585620007bc565b5f620007504362000921565b82545f9081908015620008c3575f620007dc876200077260018562000cf2565b805490915065ffffffffffff80821691660100000000000090046001600160d01b03169088168211156200082357604051632520601d60e01b815260040160405180910390fd5b8765ffffffffffff168265ffffffffffff16036200086157825465ffffffffffff1666010000000000006001600160d01b03891602178355620008b4565b6040805180820190915265ffffffffffff808a1682526001600160d01b03808a1660208085019182528d54600181018f555f8f815291909120945191519092166601000000000000029216919091179101555b9450859350620005ce92505050565b50506040805180820190915265ffffffffffff80851682526001600160d01b0380851660208085019182528854600181018a555f8a8152918220955192519093166601000000000000029190931617920191909155905081620005ce565b5f65ffffffffffff82111562000596576040516306dfcc6560e41b81526030600482015260248101839052604401620001bc565b5f6020828403121562000966575f80fd5b81516001600160a01b03811681146200055a575f80fd5b634e487b7160e01b5f52604160045260245ffd5b600181811c90821680620009a657607f821691505b602082108103620009c557634e487b7160e01b5f52602260045260245ffd5b50919050565b601f8211156200031457805f5260205f20601f840160051c81016020851015620009f25750805b601f840160051c820191505b8181101562000a13575f8155600101620009fe565b5050505050565b81516001600160401b0381111562000a365762000a366200097d565b62000a4e8162000a47845462000991565b84620009cb565b602080601f83116001811462000a84575f841562000a6c5750858301515b5f19600386901b1c1916600185901b17855562000ade565b5f85815260208120601f198616915b8281101562000ab45788860151825594840194600190910190840162000a93565b508582101562000ad257878501515f19600388901b60f8161c191681555b505060018460011b0185555b505050505050565b634e487b7160e01b5f52601160045260245ffd5b600181815b8085111562000b3a57815f190482111562000b1e5762000b1e62000ae6565b8085161562000b2c57918102915b93841c939080029062000aff565b509250929050565b5f8262000b525750600162000232565b8162000b6057505f62000232565b816001811462000b79576002811462000b845762000ba4565b600191505062000232565b60ff84111562000b985762000b9862000ae6565b50506001821b62000232565b5060208310610133831016604e8410600b841016171562000bc9575081810a62000232565b62000bd5838362000afa565b805f190482111562000beb5762000beb62000ae6565b029392505050565b5f6200055a60ff84168362000b42565b808202811582820484141762000232576200023262000ae6565b5f602080835283518060208501525f5b8181101562000c4b5785810183015185820160400152820162000c2d565b505f604082860101526040601f19601f8301168501019250505092915050565b80516020808301519190811015620009c5575f1960209190910360031b1b16919050565b8082018082111562000232576200023262000ae6565b6001600160d01b0381811683821601908082111562000cc85762000cc862000ae6565b5092915050565b6001600160d01b0382811682821603908082111562000cc85762000cc862000ae6565b8181038181111562000232576200023262000ae6565b60805160a05160c05160e051610100516101205161014051611e5c62000d5a5f395f610ded01525f610dc001525f610b0001525f610ad801525f610a3301525f610a5d01525f610a870152611e5c5ff3fe608060405234801561000f575f80fd5b50600436106101a1575f3560e01c8063715018a6116100f35780639ab24eb011610093578063d505accf1161006e578063d505accf146103b2578063dd62ed3e146103c5578063f1127ed8146103fd578063f2fde38b1461043c575f80fd5b80639ab24eb014610379578063a9059cbb1461038c578063c3cda5201461039f575f80fd5b80638da5cb5b116100ce5780638da5cb5b1461032e5780638e539e8c1461033f57806391ddadf41461035257806395d89b4114610371575f80fd5b8063715018a6146102f85780637ecebe001461030057806384b0196e14610313575f80fd5b80633a46b1a81161015e578063587cde1e11610139578063587cde1e146102525780635c19a95c146102955780636fcfff45146102a857806370a08231146102d0575f80fd5b80633a46b1a81461022257806340c10f19146102355780634bf5d7e91461024a575f80fd5b806306fdde03146101a5578063095ea7b3146101c357806318160ddd146101e657806323b872dd146101f8578063313ce5671461020b5780633644e5151461021a575b5f80fd5b6101ad61044f565b6040516101ba9190611aa5565b60405180910390f35b6101d66101d1366004611ad2565b6104df565b60405190151581526020016101ba565b6002545b6040519081526020016101ba565b6101d6610206366004611afa565b6104f8565b604051601281526020016101ba565b6101ea61051b565b6101ea610230366004611ad2565b610529565b610248610243366004611ad2565b610563565b005b6101ad610579565b61027d610260366004611b33565b6001600160a01b039081165f908152600860205260409020541690565b6040516001600160a01b0390911681526020016101ba565b6102486102a3366004611b33565b6105f1565b6102bb6102b6366004611b33565b6105fc565b60405163ffffffff90911681526020016101ba565b6101ea6102de366004611b33565b6001600160a01b03165f9081526020819052604090205490565b610248610606565b6101ea61030e366004611b33565b610619565b61031b610623565b6040516101ba9796959493929190611b4c565b600b546001600160a01b031661027d565b6101ea61034d366004611be3565b610665565b61035a610689565b60405165ffffffffffff90911681526020016101ba565b6101ad610692565b6101ea610387366004611b33565b6106a1565b6101d661039a366004611ad2565b6106c1565b6102486103ad366004611c0a565b6106ce565b6102486103c0366004611c5e565b61078f565b6101ea6103d3366004611cc3565b6001600160a01b039182165f90815260016020908152604080832093909416825291909152205490565b61041061040b366004611cf4565b6108c5565b60408051825165ffffffffffff1681526020928301516001600160d01b031692810192909252016101ba565b61024861044a366004611b33565b6108e9565b60606003805461045e90611d31565b80601f016020809104026020016040519081016040528092919081815260200182805461048a90611d31565b80156104d55780601f106104ac576101008083540402835291602001916104d5565b820191905f5260205f20905b8154815290600101906020018083116104b857829003601f168201915b5050505050905090565b5f336104ec81858561093c565b60019150505b92915050565b5f3361050585828561094e565b6105108585856109ca565b506001949350505050565b5f610524610a27565b905090565b5f61055361053683610b50565b6001600160a01b0385165f90815260096020526040902090610b9e565b6001600160d01b03169392505050565b61056b610c4e565b6105758282610c7b565b5050565b6060610583610caf565b65ffffffffffff16610593610689565b65ffffffffffff16146105b9576040516301bfc1c560e61b815260040160405180910390fd5b5060408051808201909152601d81527f6d6f64653d626c6f636b6e756d6265722666726f6d3d64656661756c74000000602082015290565b336105758183610cb9565b5f6104f282610d2a565b61060e610c4e565b6106175f610d4b565b565b5f6104f282610d9c565b5f6060805f805f6060610634610db9565b61063c610de6565b604080515f80825260208201909252600f60f81b9b939a50919850469750309650945092509050565b5f61067a61067283610b50565b600a90610b9e565b6001600160d01b031692915050565b5f610524610caf565b60606004805461045e90611d31565b6001600160a01b0381165f90815260096020526040812061067a90610e13565b5f336104ec8185856109ca565b834211156106f757604051632341d78760e11b8152600481018590526024015b60405180910390fd5b604080517fe48329057bfd03d55e49b547132e39cffd9c1820ad7b9d4c5307691425d15adf60208201526001600160a01b0388169181019190915260608101869052608081018590525f90610770906107689060a00160405160208183030381529060405280519060200120610e4a565b858585610e76565b905061077c8187610ea2565b6107868188610cb9565b50505050505050565b834211156107b35760405163313c898160e11b8152600481018590526024016106ee565b5f7f6e71edae12b1b97f4d1f60370fef10105fa2faae0126114a169c64845d6126c98888886107fe8c6001600160a01b03165f90815260076020526040902080546001810190915590565b6040805160208101969096526001600160a01b0394851690860152929091166060840152608083015260a082015260c0810186905260e0016040516020818303038152906040528051906020012090505f61085882610e4a565b90505f61086782878787610e76565b9050896001600160a01b0316816001600160a01b0316146108ae576040516325c0072360e11b81526001600160a01b0380831660048301528b1660248201526044016106ee565b6108b98a8a8a61093c565b50505050505050505050565b604080518082019091525f80825260208201526108e28383610ef4565b9392505050565b6108f1610c4e565b6001600160a01b03811661091a57604051631e4fbdf760e01b81525f60048201526024016106ee565b61092381610d4b565b50565b5f6108e28284611d7d565b5f6108e28284611da4565b6109498383836001610f28565b505050565b6001600160a01b038381165f908152600160209081526040808320938616835292905220545f198110156109c457818110156109b657604051637dc7a0d960e11b81526001600160a01b038416600482015260248101829052604481018390526064016106ee565b6109c484848484035f610f28565b50505050565b6001600160a01b0383166109f357604051634b637e8f60e11b81525f60048201526024016106ee565b6001600160a01b038216610a1c5760405163ec442f0560e01b81525f60048201526024016106ee565b610949838383610ffa565b5f306001600160a01b037f000000000000000000000000000000000000000000000000000000000000000016148015610a7f57507f000000000000000000000000000000000000000000000000000000000000000046145b15610aa957507f000000000000000000000000000000000000000000000000000000000000000090565b610524604080517f8b73c3c69bb8fe3d512ecc4cf759cc79239f7b179b0ffacaa9a75d522b39400f60208201527f0000000000000000000000000000000000000000000000000000000000000000918101919091527f000000000000000000000000000000000000000000000000000000000000000060608201524660808201523060a08201525f9060c00160405160208183030381529060405280519060200120905090565b5f80610b5a610689565b90508065ffffffffffff168310610b9557604051637669fc0f60e11b81526004810184905265ffffffffffff821660248201526044016106ee565b6108e283611005565b81545f9081816005811115610bfa575f610bb78461103b565b610bc19085611dc4565b5f8881526020902090915081015465ffffffffffff9081169087161015610bea57809150610bf8565b610bf5816001611dd7565b92505b505b5f610c0787878585611193565b90508015610c4157610c2b87610c1e600184611dc4565b5f91825260209091200190565b54600160301b90046001600160d01b0316610c43565b5f5b979650505050505050565b600b546001600160a01b031633146106175760405163118cdaa760e01b81523360048201526024016106ee565b6001600160a01b038216610ca45760405163ec442f0560e01b81525f60048201526024016106ee565b6105755f8383610ffa565b5f61052443611005565b6001600160a01b038281165f8181526008602052604080822080548686166001600160a01b0319821681179092559151919094169392849290917f3134e8a2e6d97e929a7e54011ea5485d7d196dd5f0ba4d4ef95803e8e3fc257f9190a46109498183610d25866111e9565b611206565b6001600160a01b0381165f908152600960205260408120546104f29061136f565b600b80546001600160a01b038381166001600160a01b0319831681179093556040519116919082907f8be0079c531659141344cd1fd0a4f28419497f9722a3daafe3b4186f6b6457e0905f90a35050565b6001600160a01b0381165f908152600760205260408120546104f2565b60606105247f0000000000000000000000000000000000000000000000000000000000000000600561139f565b60606105247f0000000000000000000000000000000000000000000000000000000000000000600661139f565b80545f908015610e4257610e2c83610c1e600184611dc4565b54600160301b90046001600160d01b03166108e2565b5f9392505050565b5f6104f2610e56610a27565b8360405161190160f01b8152600281019290925260228201526042902090565b5f805f80610e8688888888611448565b925092509250610e968282611510565b50909695505050505050565b6001600160a01b0382165f908152600760205260409020805460018101909155818114610949576040516301d4b62360e61b81526001600160a01b0384166004820152602481018290526044016106ee565b604080518082019091525f80825260208201526001600160a01b0383165f9081526009602052604090206108e290836115c8565b6001600160a01b038416610f515760405163e602df0560e01b81525f60048201526024016106ee565b6001600160a01b038316610f7a57604051634a1406b160e11b81525f60048201526024016106ee565b6001600160a01b038085165f90815260016020908152604080832093871683529290522082905580156109c457826001600160a01b0316846001600160a01b03167f8c5be1e5ebec7d5bd14f71427d1e84f3dd0314c0f7b2291e5b200ac8c7c3b92584604051610fec91815260200190565b60405180910390a350505050565b610949838383611635565b5f65ffffffffffff821115611037576040516306dfcc6560e41b815260306004820152602481018390526044016106ee565b5090565b5f60018211611048575090565b816001600160801b82106110615760809190911c9060401b5b68010000000000000000821061107c5760409190911c9060201b5b64010000000082106110935760209190911c9060101b5b6201000082106110a85760109190911c9060081b5b61010082106110bc5760089190911c9060041b5b601082106110cf5760049190911c9060021b5b600482106110db5760011b5b600302600190811c908185816110f3576110f3611dea565b048201901c9050600181858161110b5761110b611dea565b048201901c9050600181858161112357611123611dea565b048201901c9050600181858161113b5761113b611dea565b048201901c9050600181858161115357611153611dea565b048201901c9050600181858161116b5761116b611dea565b048201901c905061118a81858161118457611184611dea565b04821190565b90039392505050565b5f5b818310156111e1575f85815260209020838316600285851804019081015465ffffffffffff868116911611156111cd578092506111db565b6111d8816001611dd7565b93505b50611195565b509392505050565b6001600160a01b0381165f908152602081905260408120546104f2565b816001600160a01b0316836001600160a01b03161415801561122757505f81115b15610949576001600160a01b038316156112ce576001600160a01b0383165f9081526009602052604081208190611269906109316112648661169b565b6116ce565b6001600160d01b031691506001600160d01b03169150846001600160a01b03167fdec2bacdd2f05b59de34da9b523dff8be42e5e38e818c82fdb0bae774387a72483836040516112c3929190918252602082015260400190565b60405180910390a250505b6001600160a01b03821615610949576001600160a01b0382165f9081526009602052604081208190611306906109266112648661169b565b6001600160d01b031691506001600160d01b03169150836001600160a01b03167fdec2bacdd2f05b59de34da9b523dff8be42e5e38e818c82fdb0bae774387a7248383604051611360929190918252602082015260400190565b60405180910390a25050505050565b5f63ffffffff821115611037576040516306dfcc6560e41b815260206004820152602481018390526044016106ee565b606060ff83146113b9576113b283611706565b90506104f2565b8180546113c590611d31565b80601f01602080910402602001604051908101604052809291908181526020018280546113f190611d31565b801561143c5780601f106114135761010080835404028352916020019161143c565b820191905f5260205f20905b81548152906001019060200180831161141f57829003601f168201915b505050505090506104f2565b5f80807f7fffffffffffffffffffffffffffffff5d576e7357a4501ddfe92f46681b20a084111561148157505f91506003905082611506565b604080515f808252602082018084528a905260ff891692820192909252606081018790526080810186905260019060a0016020604051602081039080840390855afa1580156114d2573d5f803e3d5ffd5b5050604051601f1901519150506001600160a01b0381166114fd57505f925060019150829050611506565b92505f91508190505b9450945094915050565b5f82600381111561152357611523611dfe565b0361152c575050565b600182600381111561154057611540611dfe565b0361155e5760405163f645eedf60e01b815260040160405180910390fd5b600282600381111561157257611572611dfe565b036115935760405163fce698f760e01b8152600481018290526024016106ee565b60038260038111156115a7576115a7611dfe565b03610575576040516335e2f38360e21b8152600481018290526024016106ee565b604080518082019091525f8082526020820152825f018263ffffffff16815481106115f5576115f5611e12565b5f9182526020918290206040805180820190915291015465ffffffffffff81168252600160301b90046001600160d01b0316918101919091529392505050565b611640838383611743565b6001600160a01b038316611690575f61165860025490565b90506001600160d01b038082111561168d57604051630e58ae9360e11b815260048101839052602481018290526044016106ee565b50505b610949838383611869565b5f6001600160d01b03821115611037576040516306dfcc6560e41b815260d06004820152602481018390526044016106ee565b5f806116f96116db610689565b6116f16116e788610e13565b868863ffffffff16565b8791906118de565b915091505b935093915050565b60605f611712836118eb565b6040805160208082528183019092529192505f91906020820181803683375050509182525060208101929092525090565b6001600160a01b03831661176d578060025f8282546117629190611dd7565b909155506117dd9050565b6001600160a01b0383165f90815260208190526040902054818110156117bf5760405163391434e360e21b81526001600160a01b038516600482015260248101829052604481018390526064016106ee565b6001600160a01b0384165f9081526020819052604090209082900390555b6001600160a01b0382166117f957600280548290039055611817565b6001600160a01b0382165f9081526020819052604090208054820190555b816001600160a01b0316836001600160a01b03167fddf252ad1be2c89b69c2b068fc378daa952ba7f163c4a11628f55a4df523b3ef8360405161185c91815260200190565b60405180910390a3505050565b6001600160a01b03831661188b57611888600a6109266112648461169b565b50505b6001600160a01b0382166118ad576118aa600a6109316112648461169b565b50505b6001600160a01b038381165f9081526008602052604080822054858416835291205461094992918216911683611206565b5f806116f9858585611912565b5f60ff8216601f8111156104f257604051632cd44ac360e21b815260040160405180910390fd5b82545f9081908015611a08575f61192e87610c1e600185611dc4565b805490915065ffffffffffff80821691600160301b90046001600160d01b031690881682111561197157604051632520601d60e01b815260040160405180910390fd5b8765ffffffffffff168265ffffffffffff16036119aa57825465ffffffffffff16600160301b6001600160d01b038916021783556119fa565b6040805180820190915265ffffffffffff808a1682526001600160d01b03808a1660208085019182528d54600181018f555f8f81529190912094519151909216600160301b029216919091179101555b94508593506116fe92505050565b50506040805180820190915265ffffffffffff80851682526001600160d01b0380851660208085019182528854600181018a555f8a815291822095519251909316600160301b0291909316179201919091559050816116fe565b5f81518084525f5b81811015611a8657602081850181015186830182015201611a6a565b505f602082860101526020601f19601f83011685010191505092915050565b602081525f6108e26020830184611a62565b80356001600160a01b0381168114611acd575f80fd5b919050565b5f8060408385031215611ae3575f80fd5b611aec83611ab7565b946020939093013593505050565b5f805f60608486031215611b0c575f80fd5b611b1584611ab7565b9250611b2360208501611ab7565b9150604084013590509250925092565b5f60208284031215611b43575f80fd5b6108e282611ab7565b60ff60f81b881681525f602060e06020840152611b6c60e084018a611a62565b8381036040850152611b7e818a611a62565b606085018990526001600160a01b038816608086015260a0850187905284810360c0860152855180825260208088019350909101905f5b81811015611bd157835183529284019291840191600101611bb5565b50909c9b505050505050505050505050565b5f60208284031215611bf3575f80fd5b5035919050565b803560ff81168114611acd575f80fd5b5f805f805f8060c08789031215611c1f575f80fd5b611c2887611ab7565b95506020870135945060408701359350611c4460608801611bfa565b92506080870135915060a087013590509295509295509295565b5f805f805f805f60e0888a031215611c74575f80fd5b611c7d88611ab7565b9650611c8b60208901611ab7565b95506040880135945060608801359350611ca760808901611bfa565b925060a0880135915060c0880135905092959891949750929550565b5f8060408385031215611cd4575f80fd5b611cdd83611ab7565b9150611ceb60208401611ab7565b90509250929050565b5f8060408385031215611d05575f80fd5b611d0e83611ab7565b9150602083013563ffffffff81168114611d26575f80fd5b809150509250929050565b600181811c90821680611d4557607f821691505b602082108103611d6357634e487b7160e01b5f52602260045260245ffd5b50919050565b634e487b7160e01b5f52601160045260245ffd5b6001600160d01b03818116838216019080821115611d9d57611d9d611d69565b5092915050565b6001600160d01b03828116828216039080821115611d9d57611d9d611d69565b818103818111156104f2576104f2611d69565b808201808211156104f2576104f2611d69565b634e487b7160e01b5f52601260045260245ffd5b634e487b7160e01b5f52602160045260245ffd5b634e487b7160e01b5f52603260045260245ffdfea2646970667358221220104681bb1a236a60cccc5105ac969a85a75a7c3429eb08faa07438f34e9b693f64736f6c63430008180033dec2bacdd2f05b59de34da9b523dff8be42e5e38e818c82fdb0bae774387a724",
  "linkReferences": {},
  "deployedLinkReferences": {},
  "immutableReferences": {
    "10861": [
      {
        "length": 32,
        "start": 2695
      }
    ],
    "10863": [
      {
        "length": 32,
        "start": 2653
      }
    ],
    "10865": [
      {
        "length": 32,
        "start": 2611
      }
    ],
    "10867": [
      {
        "length": 32,
        "start": 2776
      }
    ],
    "10869": [
      {
        "length": 32,
        "start": 2816
      }
    ],
    "10872": [
      {
        "length": 32,
        "start": 3520
      }
    ],
    "10875": [
      {
        "length": 32,
        "start": 3565
      }
    ]
  },
  "inputSourceName": "project/contracts/GovernanceToken.sol",
  "buildInfoId": "solc-0_8_24-a61e55ecb79be43ab04d44a51fc5116c86fae1c4"
}